:020000040800F2
:10000000980400209D010008710B0008B10600084B
:100010004D0B0008A9030008ED17000800000000C0
:10002000000000000000000000000000C50D0008F6
:10003000AB03000800000000810C0008B5010008B7
:10004000B7010008B7010008B7010008B7010008B0
:10005000B7010008B7010008B7010008B7010008A0
:10006000B7010008B7010008B7010008B701000890
:10007000B7010008B7010008B7010008B701000880
:10008000B7010008B7010008B7010008B701000870
:10009000B7010008B7010008B7010008B701000860
:1000A000B7010008B7010008B7010008B701000850
:1000B000B7010008B70100081D100008B7010008CB
:1000C000B7010008B7010008B7010008B701000830
:1000D000B7010008B7010008B7010008B701000820
:1000E000B7010008B7010008B7010008B701000810
:1000F000B7010008B7010008B7010008B701000800
:10010000B7010008B7010008B7010008B7010008EF
:100110001D150008B7010008B7010008B701000865
:10012000B7010008B7010008B7010008B7010008CF
:10013000B7010008B7010008B7010008B7010008BF
:10014000B7010008B7010008B7010008B7010008AF
:10015000B7010008B7010008B7010008B70100089F
:10016000B7010008B7010008B7010008B70100088F
:10017000B7010008B7010008B7010008B70100087F
:10018000B7010008B7010008DFF80CD000F02EF826
:100190000048004785190008980400200648804759
:1001A00006480047FEE7FEE7FEE7FEE7FEE7FEE75C
:1001B000FEE7FEE7FEE7FEE7CD0F00088901000835
:1001C00030B50B46014600202022012409E021FA27
:1001D00002F59D4205D303FA02F5491B04FA02F524
:1001E0002844151EA2F10102F1DC30BD064C074D7A
:1001F00006E0E06840F0010394E8070098471034F7
:10020000AC42F6D3FFF7C4FF701A0008901A00083A
:100210002DE9F041244D28684FF42F76B04241D9A2
:10022000224C206801280ED16068E16849424843A9
:1002300001F0D0FB6068E1684942484301F0E4FB0B
:10024000C82000F08DFC002001F0C4FB002001F06C
:10025000DBFB4FF496774FF4C8781DE0012000F0E7
:10026000A5FD002000F0A2FD022000F09FFD03206C
:1002700000F09CFD384600F073FC012000F08AFD80
:10028000002000F087FD022000F084FD032000F034
:1002900081FD404600F064FC2868B042DED80020B2
:1002A0006060E060BDE8F0816C000020000000208C
:1002B00070B588B000244FF416500290ADF810408D
:1002C0000C20ADF80C40ADF81200ADF80E40ADF8C2
:1002D00014400121042000F0D5FC0121C80400F0E5
:1002E000DDFC2B4E08220A21304600F055F9082289
:1002F0000B21304600F050F98DF80640022401250C
:100300008DF8075060028DF8044000908DF805408C
:100310006946304600F002F9A00200908DF80440D2
:100320006946304600F0FAF81A4C02A9204601F05E
:100330007BF9012240F22551204601F05DF90121AF
:10034000204601F029F90D21204601F0CDF94FF4A6
:10035000E06000F041FC34208DF818000E208DF88C
:100360001A008DF81B5006A800F004FC0AA001F04A
:100370003FFA012000F0EAFC002000F0E7FC022038
:1003800000F0E4FC032000F0E1FC08B070BD0000C8
:1003900000080240004C004020636F6E6E6563747D
:1003A0006564210A00000000FEE770477CB501216A
:1003B000022000F073FC0121022000F06FFC0121FB
:1003C000042000F05FFC0121042000F05BFC01210F
:1003D000042000F057FC0121042000F053FC684683
:1003E00000F0F5F802208DF8040001208DF80700D8
:1003F0000002274C00906946204600F08FF86015F7
:1004000000906946204600F089F840200090694637
:10041000204600F083F8802000906946204600F0D6
:100420007DF802220821204600F0B6F802220921B8
:10043000204600F0B1F802220621204600F0ACF878
:1004400002220721204600F0A7F8124C00231A468A
:100450000321204600F07DFE4FF6FF752946204619
:1004600000F09CFF00231A460321204600F071FE95
:100470002946204600F092FF0121204600F05FFE51
:100480000121204600F05BFE00F02EF87CBD00004C
:10049000000802400004004070B5114C2089A08083
:1004A0006089E0800F4D284600F06DFE20812846CF
:1004B00000F069FE404260812089A188401A2080B6
:1004C0006089E188401A6080E068B4F9001008444F
:1004D000E0602069B4F902100844206170BD00009A
:1004E000480000200004004010B572B60020094901
:1004F0008880C880C8600861074C0146204600F02B
:1005000057FF0021204600F053FFFFF7C5FF62B6FA
:1005100010BD00004800002000040040F0B500229B
:1005200001234FF0030C00BF0D6803FA02F42540CD
:10053000A5422DD1066854000CFA04F5AE430660BE
:100540000E790768A6403E4306600E79012E01D061
:10055000022E12D18668AE4386604D798668A5402A
:1005600035438560456803FA02F6B5434560456842
:100570008E799640B6B235434560C56856000CFA90
:1005800006F7BD43C560CD79A540C4682543C56065
:10059000521C102AC8D3F0BD4B07DB0E9A40C90885
:1005A00010B500EB8100016A0F249C40A143016259
:1005B000016A1143016210BD0246002012690A421D
:1005C00000D00120704741837047018370474FF688
:1005D000FF7101600021017141718171C17170472A
:1005E0002DE9F041154C00256560A560144E4FF4CF
:1005F000006739463046FFF7E8FF0A2000F0A8FA06
:1006000039463046FFF7DFFF322020604FF4805834
:10061000012707E041463046FFF7CEFF08B167608B
:1006200000E0656020680028F4D16560A16805A03D
:1006300001F0DEF8A068BDE8F08100007C00002039
:100640000010024025640A002DE9F041154C0025F8
:100650006560A560144E4FF4005739463046FFF7E9
:10066000B4FF0A2000F074FA39463046FFF7ABFFBA
:10067000322020604FF48048012707E04146304691
:10068000FFF79AFF08B1676000E065602068002806
:10069000F4D16560A16805A001F0AAF8A068BDE8E2
:1006A000F08100007C0000200010024025640A0058
:1006B000FEE700000C4810B5006800284FF001006C
:1006C00002D000F073FB01E000F064FB0748006813
:1006D00000284FF0030003D0BDE8104000F066BBD7
:1006E000BDE8104000F056BB1400002000000020C0
:1006F00070B5214D286800283CD0204800680128AA
:1007000038D11F4C2068404201F064F92068404213
:1007100001F07AF9FFF764FF1A4C2060FFF794FFAD
:1007200060606D214FF4967000F0ECFE002612E040
:10073000FFF756FFA060FFF787FFE060A068216821
:10074000884207D8E0686168884203D86D2000F0CD
:1007500071FE00B12E6028680028E9D101F03AF955
:10076000002001F051F9084801680129FCD0016816
:100770000029F9D070BD0000080000200C00002006
:100780000400002088000020740000202DE9F05FA4
:1007900000F0AEFFFFF7ACFFFFF78CFFE14F3868CA
:1007A0000025DFF884B3DFF884A3E14EE14C09288B
:1007B00061D1DBF800105846DFF87C9399B301292A
:1007C00059D10560FFF776FF35602560206801F09C
:1007D00001F9206801F018F9B42000F013FBB420EF
:1007E00000F01EFB38680928FCD0002000F00AFB4E
:1007F000002000F015FB4FF4967000F0B1F9B42022
:1008000000F000FBB42000F00BFB356056202060A8
:10081000C9F80050CAF80050002000F0BBFA0220CE
:1008200000F0B8FA25E0FFE74FF00108C0F80080BB
:10083000FFF740FF002000F0E5FA002000F0F0FA9A
:1008400038680928FCD0B42000F0DCFAB42000F0AD
:10085000E7FA4FF4967000F083F9002000F0D2FA26
:10086000002000F0DDFA35602560C9F80050CAF8B4
:100870000080FFF71FFF3868DFF8C082DFF8C09202
:100880000A284DD1DAF80010504641B3012947D16A
:100890000560FFF70FFF002000F07CFA022000F057
:1008A00079FAB42000F0BCFAB42000F0ABFA386852
:1008B0000A28FCD0002000F0B3FA002000F0A2FAD1
:1008C0004FF4967000F04CF9002001F083F80020FE
:1008D00001F09AF8B42000F0A3FAB4201EE0012140
:1008E0000160FFF7E7FE002000F09AFA002000F018
:1008F00089FA38680A28FCD0B42000F091FAB420B4
:1009000000F080FA4FF4967000F02AF9C8F8005011
:10091000C9F80050002000F083FA002000F072FABD
:1009200080480068874F052825D14B202060DBF8E0
:100930000010012902D06320386014E0386030686C
:10094000012803D03068022805D00CE0206801F0AF
:1009500041F8206805E02068404201F03BF820683B
:10096000404201F051F8C8F80050C9F800507648EC
:100970004FF4916101606B480068072825D156202B
:100980002060DBF80010012902D06320386014E0F9
:1009900038603068012803D03068022805D00CE0A8
:1009A000206801F017F8206805E02068404201F057
:1009B00011F82068404201F027F8C8F80050C9F843
:1009C0000050614840F2CC61016056480068082838
:1009D00025D164202060DBF80010012902D06320BB
:1009E000386014E038603068012803D0306802288D
:1009F00005D00CE0206800F0EDFF206805E02068DD
:100A0000404200F0E7FF2068404200F0FDFFC8F8D8
:100A10000050C9F800504C4840F63221016041486E
:100A2000006806281BD1DBF80000012817D12068D8
:100A300031684942484300F0CDFF2068316849429F
:100A4000484300F0E1FF4FF4967000F089F8002071
:100A500000F0C0FF002000F0D7FF35602560314D69
:100A60002868F8B9DBF8000001280BD13068401C79
:100A700008D020683168484300F0ACFF2068316836
:100A8000484303E0002000F0A5FF002000F0BCFF79
:100A9000DAF80000012805D1002000F0B3F90020A9
:100AA00000F0BEF9286803280ED1DAF8000001280A
:100AB00003D1D9F8000000F0B3F9386800F08AFFDC
:100AC0003868404200F0A0FF286804280ED1DAF808
:100AD0000000012803D1D8F8000000F093F938682D
:100AE000404200F077FF386800F08EFF2868012848
:100AF00007D1206800F06EFF206800F085FF01201C
:100B00003060286802280AD12068404200F062FF65
:100B10002068404200F078FF4FF0FF303060BDE8C1
:100B2000F09F00007400002000000020140000204E
:100B30000C00002004000020080000201C00002001
:100B4000200000201000002018000020FEE7000018
:100B50000249886088680028FCD170475C0000204A
:100B60000249C860C8680028FCD170475C000020BA
:100B70007047000070B50F21C478027801234FF050
:100B8000E026E4B1124C246804F4E064C4F5E064A7
:100B9000C4F30724C4F10405E1404478AC408578EF
:100BA0000D4025430B4C29011155007800F01F0121
:100BB0008B40400906EB8000C0F8003170BD02F0A8
:100BC0001F008340500906EB8000C0F8803170BDE3
:100BD0000CED00E000E400E002490843024908602F
:100BE000704700000000FA050CED00E030B589B058
:100BF00063200690A720ADF8140000241F4DADF827
:100C00001C40ADF8164005A9284600F0D3FB602033
:100C1000ADF800000120ADF802000294ADF80C40E0
:100C20006946284600F0C4FA0821284600F0F0FA88
:100C300069462846029400F0F1FA0821284600F09F
:100C40002BFB69462846029400F02EFB082128461B
:100C500000F066FB69462846029400F067FB082115
:100C6000284600F091FB0121284600F05BFA0121A3
:100C7000284600F064FA09B030BD0000000C0040C6
:100C800070470000044A0029116801D0014300E0C8
:100C9000814311607047000030380240044A002947
:100CA000116801D0014300E08143116070470000EA
:100CB0004038024030B5224B1968224A11F00C012D
:100CC00004D05510042903D0082903D002601DE088
:100CD00005601BE01A49091F0C68C4F3805C0C68AE
:100CE000BCF1000F04F03F0402D0B5FBF4F201E0C8
:100CF000B2FBF4F20C680968C4F388146243C1F3D0
:100D00000141491C4900B2FBF1F1016019680E4A2A
:100D100001F0F0010909545C0168E14041601C6880
:100D200004F4E054A40A145D21FA04F484601B68FE
:100D300003F460435B0BD25CD140C16030BD000066
:100D4000083802400024F400240000201CB50446AA
:100D50000E48012150F82400FFF794FF0B480021B2
:100D6000083830F81400009001208DF804008DF848
:100D700006108DF8070002208DF80500044869462A
:100D800050F82400FFF7CAFB1CBD0000601A0008E1
:100D9000380000200349044A31F8101052F82000AE
:100DA00041837047581A0008380000200349044A5C
:100DB00031F8101052F8200001837047581A0008CB
:100DC000380000207047000070B50D4D04460A2819
:100DD00009D10D21284600F087FC4021284600F06B
:100DE000E5FB0028F9D0E1B2284600F07DFC402167
:100DF000284600F0DBFB0028F9D0204670BD00003B
:100E0000004C0040B42808D800EB400101EBC001C1
:100E100001F28A21014800F0C3BA7047001800406F
:100E2000B42809D800EB400101EBC000A0F69C10EB
:100E30004142024800F0B6BA704700000018004076
:100E40002DE9F0418AB001214020FFF727FF012161
:100E50000220FFF717FF02268DF8186003274FF4D2
:100E600080408DF819700024DFF8BC8005908DF863
:100E70001A4001258DF81B5005A94046FFF74EFB8F
:100E80008DF81860E8038DF8197005908DF81A40F8
:100E90008DF81B5005A94046FFF740FB09220E21A3
:100EA0004046FFF779FB09220F214046FFF774FB0C
:100EB00044F61F6008905320ADF81C00DFF86C80EA
:100EC000ADF82440ADF81E4007A9404600F072FA84
:100ED0006026ADF8006040F2DC57ADF80250029792
:100EE000ADF80C406946404600F062F908214046E2
:100EF00000F08EF9ADF80060ADF802500297ADF841
:100F00000C406946404600F089F90821404600F04F
:100F1000C3F90121404600F005F90121404600F0E7
:100F20000EF90AB0BDE8F08100040240001800404C
:100F3000224900200A6842F480320A604FF4A0631C
:100F40000A6800F1010012F4003F01D19842F7D184
:100F50000868800331D519484030026842F0805259
:100F600002601748026842F4804202601348083069
:100F700002680260026842F400420260026842F4C1
:100F8000A0520260031F0F4A1A600A6842F0807282
:100F90000A600A689201FCD50B4A40F205611160B3
:100FA000016821F003010160016841F00201016064
:100FB0000168C1F381010229FAD17047003802406B
:100FC0000070004008544007003C02400F4810B534
:100FD000016841F0010101600C4A002108321160F2
:100FE00002680B4B1A400260031D0A4A1A6002682D
:100FF00022F48022026005480C300160FFF798FF60
:1010000005494FF00060086010BD00000038024044
:10101000FFFFF6FE1030002408ED00E070B5224D11
:101020000221284600F0B1F8204CC0B10221284628
:1010300000F082F8A06810B1A068401EA0601C48B3
:10104000006818B11B480168491C0160284600F07F
:1010500096F8606021880144284600F0A1F9042137
:10106000284600F092F800281CD00421284600F001
:1010700063F8E06810B1E068401EE0600E48016867
:1010800011B10168491E01602069401C2061284699
:1010900000F077F86060618801442846BDE8704040
:1010A00000F080B970BD0000000800405C00002026
:1010B00080000020840000207C0000201CB501215D
:1010C0000820FFF7EBFD01210846FFF7DBFD0F20AD
:1010D000009002208DF8040003208DF80500002008
:1010E0008DF8060001200E4C8DF807006946204659
:1010F000FFF714FA022200212046FFF74DFA0222E0
:1011000011462046FFF748FA022201212046FFF748
:1011100043FA022203212046FFF73EFA1CBD0000DD
:10112000000002400029018802D041F0800101E066
:1011300021F0800101807047C94301827047002976
:10114000018802D041F0010101E021F0010101809C
:10115000704770B50589048B068C25F007050D4393
:101160004FF6FC410C4040F201110C4326F02206E0
:1011700042EA0311314305810483018470BD406B51
:101180007047806B7047406A7047038A00228089ED
:101190000B4200EA010001D000B101221046704765
:1011A000002A828901D00A4300E08A438281704785
:1011B00030B5028C22F001020284028C8388048BF9
:1011C00022F0020224F073050C882C438D8915430C
:1011D0004A882A430C4DA84202D00C4DA8420DD19A
:1011E00022F00805CA8923F440732A4322F004053B
:1011F0008A882A430D8A1D434B8A2B4383800483AC
:1012000089684163028430BD000001400004014050
:10121000028B22F008020A430283704730B5028C29
:1012200022F010020284028C8388048B22F02002B8
:1012300024F4E6450C88240645EA14448D892D05DE
:1012400042EA15454A88120545EA1242104DA84265
:1012500002D0104DA84215D122F08005CA8923F48E
:101260004063120545EA124222F040058A881205C1
:1012700045EA12420D8AAD0443EA15454B8A9B04A8
:1012800045EA13438380048389688163028430BD07
:101290000000014000040140028B22F4006242EA97
:1012A000012101837047000030B5028C22F4807266
:1012B0000284028C8388848B22F4007224F07305EC
:1012C0000C882C438D892D0642EA15454A88120662
:1012D00045EA1242104DA84202D0104DA84215D145
:1012E00022F40065CA8923F44053120645EA1242EB
:1012F00022F480658A88120645EA12420D8A2D057D
:1013000043EA15454B8A1B0545EA134383808483D2
:101310008968C163028430BD0000014000040140BF
:10132000828B22F008020A438283704730B5028C18
:1013300022F480520284038C8288848B4D8824F4AA
:10134000E64C0C882D0724064CEA144423F4005C78
:101350008B891B074CEA134343EA1545084B984217
:1013600002D0084B984205D122F480430A8A9205A4
:1013700043EA12428280848389680164058430BD17
:101380000000014000040140828B22F4006242EA26
:10139000012181837047018582827047C162704755
:1013A0004163704781637047C16370470164704750
:1013B0004162704730B50288174B184C98420DD0E7
:1013C000A0420BD0B0F1804F08D0154DA84205D0F7
:1013D000144DA84202D0144DA84204D122F0700C42
:1013E0004A8842EA0C02114DA84207D0104DA8428B
:1013F00004D022F4407C0A8942EA0C0202804A6846
:10140000C2620A880285984201D0A04201D1897A3D
:1014100001860121818230BD0000014000040140AD
:101420000004004000080040000C00400010004094
:101430000014004006496D2802D0752804D101E04F
:10144000C86800E0886808B1002070470120704734
:101450005C000020F0B589B001210420FFF71EFCDC
:101460001E208DF8200000248DF8214001258DF8E4
:1014700022508DF8235008A8FFF77CFB1F4E022056
:1014800030804FF4FA6070804FF6FF701C4F06906A
:10149000ADF81440ADF81C40ADF8164005A938462B
:1014A000FFF788FF012229213846FFF774FFADF8C6
:1014B0000040ADF8025030880290ADF80C4069460B
:1014C0003846FFF775FE00213846FFF7A1FEADF85C
:1014D00002507088029069463846FFF79FFE00214F
:1014E0003846FFF7D9FE012206213846FFF758FE9D
:1014F00001213846FFF723FE09B0F0BD5C00002053
:1015000000080040044A6D2903D0752900D190607D
:101510007047D060704700005C00002010B51B4C85
:1015200040F22551204600F048F800282CD02046F3
:1015300000F0D6F8C1B216480022017030391229E5
:1015400020D2DFE801F01E16181C1A10090B0E1429
:101550001F1F1F1F1F1F1F12052100E008214160D0
:1015600010E00721FBE70621F9E70921F7E70A2147
:10157000F5E70121F3E70221F1E70321EFE7042179
:10158000EDE742600348026010BD0000004C0040DF
:10159000700000206C0000200029818902D041F4F5
:1015A000005101E021F40051818170470246002082
:1015B00012880A4200D00120704770B501F01F0662
:1015C00001220025C1F3421302FA06F4012B0FD0C9
:1015D000022B0FD0838A4FEA11210088234202FA9E
:1015E00001F200EA020001D000B10125284670BDD9
:1015F0008389F0E7038AEEE7C1F3421301F01F0C81
:10160000012101FA0CF1012B07D0022B07D0143075
:10161000002A026805D00A4304E00C30F8E71030D5
:10162000F6E78A43026070477FB50446008A0D469C
:1016300020F44051E88808432082A08941F20C61DF
:101640008843A9882A8911436A8902431143A181E9
:10165000A08A20F44071A8890843A0826846FFF759
:1016600029FB1D48844202D01C48844201D10398C2
:1016700000E00298A1890904002900EBC00101EBF8
:101680000010296802DA4FEA410101E04FEA8101C6
:10169000B0FBF1F06422B0FBF2F14FEA01114FEA26
:1016A00011136FF018056B4300EB8300A3891D0431
:1016B0004FF0320306D503EBC000B0FBF2F000F0B0
:1016C000070005E003EB0010B0FBF2F000F00F00A4
:1016D000084320817FBD000000100140001401403C
:1016E0008088C0F308007047C1F30801818070470B
:1016F0002DE9F04115480068012821D1144D2868D2
:1017000000281DD1FEF76CFF124C2060FEF79CFFF5
:1017100060602068104E3168012788424FF0020057
:1017200003D2FFF743FB2F6001E0FFF733FB606854
:10173000316888424FF0000004D2FFF737FB2F607A
:10174000BDE8F081BDE8F041FFF724BB14000020A4
:101750000800002088000020180000202DE9FC412E
:1017600001211020FFF78EFA01268DF80460002475
:101770004FF400608DF8064003251B4F00908DF854
:1017800005508DF8074069463846FEF7C7FE8DF8CC
:10179000044030038DF8064000908DF805508DF818
:1017A000074069463846FEF7B9FE8DF804607003BD
:1017B0008DF8064000908DF805508DF80740694679
:1017C0003846FEF7ABFE8DF80440B0038DF80640B6
:1017D00000908DF805508DF8074069463846FEF7B1
:1017E0009DFEBDE8FC81000000100240FEE7000005
:1017F0000FB4054B10B503A9044A029800F018F87D
:1018000010BC5DF814FB000081190008780000206E
:1018100002E008C8121F08C1002AFAD170477047B9
:10182000002001E001C1121F002AFBD17047000017
:101830002DE9FF4F89B004469B46002596E02528F8
:1018400033D10027641C4D4AB84601212378203B40
:1018500001FA03F0104202D00743641CF6E7207837
:101860002E2819D114F8010F47F004072A280ED0AA
:101870006FF02F022078A0F1300109290CD808EB75
:10188000880102EB410100EB0108641CF2E70A98B1
:10189000641C50F8048B0A90207800286AD06428D1
:1018A00008D0692806D075281FD05A460B99904752
:1018B0006D1C5AE00A994FF00A0901C90A910028E3
:1018C00004DAC0F100004FF02D0102E0390504D523
:1018D0002B218DF82010012104E0F90701D02021EF
:1018E000F7E700218A4608AE0CE00A994FF00A0992
:1018F00001C90A91F5E74946FEF762FC01F13001A2
:1019000006F8011D0028F6D1ADEB060000F1200914
:10191000780701D44FF00108C84502DDA8EB0900A3
:1019200000E000208046002706E008A85A46C05D77
:101930000B9990476D1C7F1C5745F6DB04E0302067
:101940005A460B9990476D1CB8F10001A8F10108A7
:10195000F5DC05E016F8010B5A460B9990476D1C13
:10196000B9F10001A9F10109F4DC641C2078002818
:101970007FF465AF0DB02846BDE8F08F092801005F
:10198000FFF722BAFFF766FDFEF794FEFEF70EFDA5
:10199000FFF7E4FE00F052F8FFF752FAFEF788FC7A
:1019A000B420FFF72FFAB420FFF73AFA08480021D5
:1019B00001604161562242608160026140F2CC6167
:1019C000C0F81810FEF724FCFEF7E0FEFAE700006E
:1019D0000000002010B50B4C002809DA41422046D7
:1019E000FFF7DEFC2046BDE810400021FFF7DABC1F
:1019F00001462046FFF7D6FC2046BDE810400021F6
:101A0000FFF7CEBC000C004010B50B4C002809DAE3
:101A100041422046FFF7C8FC2046BDE810400021A7
:101A2000FFF7C4BC01462046FFF7C0FC2046BDE8D6
:101A300010400021FFF7B8BC000C004010B5FFF7C4
:101A40003DFBBDE81040FFF7D1B8000000000600E4
:101A50000100010001000000001000200040008093
:101A60000800000008000000080000000800000056
:101A7000901A0008000000208800000010180008DC
:101A8000181B00088800002010040000201800081F
:101A90000000000000000000000000000000000046
:101AA0000000000000000000000000000000000036
:101AB0000000000000000000010203040102030412
:101AC0000607080900000240000C0240000C02401A
:101AD000000C0240000C024000000000000000006A
:101AE00000000000000000000000000000000000F6
:101AF00000000000000000000000000000000000E6
:101B000000000000000000000000000000000000D5
:081B10000000000000000000CD
:040000050800018965
:00000001FF
